{
  "contractName": "Voting",
  "abi": [
    {
      "constant": true,
      "inputs": [],
      "name": "candidatesCount",
      "outputs": [
        {
          "name": "",
          "type": "uint256"
        }
      ],
      "payable": false,
      "stateMutability": "view",
      "type": "function"
    },
    {
      "constant": true,
      "inputs": [
        {
          "name": "",
          "type": "uint256"
        }
      ],
      "name": "candidates",
      "outputs": [
        {
          "name": "id",
          "type": "uint256"
        },
        {
          "name": "name",
          "type": "string"
        },
        {
          "name": "voteCount",
          "type": "uint256"
        }
      ],
      "payable": false,
      "stateMutability": "view",
      "type": "function"
    },
    {
      "constant": true,
      "inputs": [
        {
          "name": "",
          "type": "address"
        }
      ],
      "name": "voters",
      "outputs": [
        {
          "name": "",
          "type": "bool"
        }
      ],
      "payable": false,
      "stateMutability": "view",
      "type": "function"
    },
    {
      "inputs": [],
      "payable": false,
      "stateMutability": "nonpayable",
      "type": "constructor"
    },
    {
      "anonymous": false,
      "inputs": [
        {
          "indexed": true,
          "name": "_candidateId",
          "type": "uint256"
        }
      ],
      "name": "votedEvent",
      "type": "event"
    },
    {
      "constant": false,
      "inputs": [
        {
          "name": "_candidateId",
          "type": "uint256"
        }
      ],
      "name": "vote",
      "outputs": [],
      "payable": false,
      "stateMutability": "nonpayable",
      "type": "function"
    },
    {
      "constant": true,
      "inputs": [
        {
          "name": "i",
          "type": "uint256"
        }
      ],
      "name": "showResults",
      "outputs": [
        {
          "name": "",
          "type": "string"
        },
        {
          "name": "",
          "type": "uint256"
        }
      ],
      "payable": false,
      "stateMutability": "view",
      "type": "function"
    }
  ],
  "bytecode": "0x608060405234801561001057600080fd5b50336000806101000a81548173ffffffffffffffffffffffffffffffffffffffff021916908373ffffffffffffffffffffffffffffffffffffffff16021790555061009e6040805190810160405280600b81526020017f4a2e462e4b656e6e65647900000000000000000000000000000000000000000081525061018a640100000000026401000000009004565b6100eb6040805190810160405280600881526020017f472e572e4275736800000000000000000000000000000000000000000000000081525061018a640100000000026401000000009004565b6101386040805190810160405280600781526020017f422e4f62616d610000000000000000000000000000000000000000000000000081525061018a640100000000026401000000009004565b6101856040805190810160405280600781526020017f442e5472756d700000000000000000000000000000000000000000000000000081525061018a640100000000026401000000009004565b6102ac565b600260008154809291906001019190505550606060405190810160405280600254815260200182815260200160008152506001600060025481526020019081526020016000206000820151816000015560208201518160010190805190602001906101f6929190610207565b506040820151816002015590505050565b828054600181600116156101000203166002900490600052602060002090601f016020900481019282601f1061024857805160ff1916838001178555610276565b82800160010185558215610276579182015b8281111561027557825182559160200191906001019061025a565b5b5090506102839190610287565b5090565b6102a991905b808211156102a557600081600090555060010161028d565b5090565b90565b6105fa806102bb6000396000f30060806040526004361061006d576000357c0100000000000000000000000000000000000000000000000000000000900463ffffffff1680630121b93f146100725780632d35a8a21461009f5780633477ee2e146100ca57806379614b2e1461017e578063a3ec138d1461022b575b600080fd5b34801561007e57600080fd5b5061009d60048036038101908080359060200190929190505050610286565b005b3480156100ab57600080fd5b506100b46103aa565b6040518082815260200191505060405180910390f35b3480156100d657600080fd5b506100f5600480360381019080803590602001909291905050506103b0565b6040518084815260200180602001838152602001828103825284818151815260200191508051906020019080838360005b83811015610141578082015181840152602081019050610126565b50505050905090810190601f16801561016e5780820380516001836020036101000a031916815260200191505b5094505050505060405180910390f35b34801561018a57600080fd5b506101a960048036038101908080359060200190929190505050610472565b6040518080602001838152602001828103825284818151815260200191508051906020019080838360005b838110156101ef5780820151818401526020810190506101d4565b50505050905090810190601f16801561021c5780820380516001836020036101000a031916815260200191505b50935050505060405180910390f35b34801561023757600080fd5b5061026c600480360381019080803573ffffffffffffffffffffffffffffffffffffffff1690602001909291905050506105ae565b604051808215151515815260200191505060405180910390f35b600360003373ffffffffffffffffffffffffffffffffffffffff1673ffffffffffffffffffffffffffffffffffffffff16815260200190815260200160002060009054906101000a900460ff161515156102df57600080fd5b6000811180156102f157506002548111155b15156102fc57600080fd5b6001600360003373ffffffffffffffffffffffffffffffffffffffff1673ffffffffffffffffffffffffffffffffffffffff16815260200190815260200160002060006101000a81548160ff0219169083151502179055506001600082815260200190815260200160002060020160008154809291906001019190505550807ffff3c900d938d21d0990d786e819f29b8d05c1ef587b462b939609625b684b1660405160405180910390a250565b60025481565b6001602052806000526040600020600091509050806000015490806001018054600181600116156101000203166002900480601f0160208091040260200160405190810160405280929190818152602001828054600181600116156101000203166002900480156104625780601f1061043757610100808354040283529160200191610462565b820191906000526020600020905b81548152906001019060200180831161044557829003601f168201915b5050505050908060020154905083565b606060008060008060009054906101000a900473ffffffffffffffffffffffffffffffffffffffff1673ffffffffffffffffffffffffffffffffffffffff163373ffffffffffffffffffffffffffffffffffffffff1614156105a657600160008681526020019081526020016000206001019150600160008681526020019081526020016000206002015490508181818054600181600116156101000203166002900480601f0160208091040260200160405190810160405280929190818152602001828054600181600116156101000203166002900480156105965780601f1061056b57610100808354040283529160200191610596565b820191906000526020600020905b81548152906001019060200180831161057957829003601f168201915b50505050509150935093506105a7565b5b5050915091565b60036020528060005260406000206000915054906101000a900460ff16815600a165627a7a723058201cf060461c9d678d85bd8d3c7b0701492fc048347036822d9b5210239e97e6ea0029",
  "source": "pragma solidity ^0.4.7;\n\n//voting class\ncontract Voting {\n\n    //Model a Candidate\n    struct Candidate {\n        uint id;\n        string name;\n        uint voteCount;\n    }\n\n    //address of the owner of the contract (Government)\n    address private owner;\n\n    //Store candidates\n    mapping ( uint => Candidate ) public candidates;\n\n    //store the number of the candidates\n    uint public candidatesCount;\n\n    //store acc that voted\n    mapping ( address => bool ) public voters;\n\n    //voting event\n    event votedEvent (\n      uint indexed _candidateId\n    );\n\n    //constructor (run when the contract is migrated)\n    //public in order to be executed when the contract is deployed in the Blockchain\n    function Voting ( ) public {\n\n      //assignes the owner of the contract\n      owner = msg . sender;\n\n      addCandidate ( \"J.F.Kennedy\" );\n      addCandidate (  \"G.W.Bush\" );\n      addCandidate ( \"B.Obama\" );\n      addCandidate ( \"D.Trump\" );\n    }\n\n    //Add Candidate, private because only the contract have to be able to access it\n    function addCandidate ( string _name ) private {\n\n        candidatesCount++;\n        candidates [ candidatesCount ] = Candidate ( candidatesCount, _name, 0 );\n    }\n\n    function vote ( uint _candidateId ) public {\n\n        //havent voted before\n        require ( !voters [ msg.sender ] );\n\n        //vote for valid candidate\n        require ( _candidateId > 0 && _candidateId <= candidatesCount );\n\n        //record voter has voted\n        voters[ msg.sender ] = true;\n\n        //update candidate vote Count\n        candidates [ _candidateId ] . voteCount ++;\n\n        //trigger event\n        votedEvent ( _candidateId );\n    }\n\n    function showResults (uint i )  view public returns ( string, uint ) {\n\n        if ( msg . sender == owner ) {\n\n            string storage candiateName = ( candidates [ i ] . name);\n\n            uint votes = ( candidates [ i ] . voteCount );\n\n            return (candiateName, votes);\n        }\n\n    }\n\n}\n",
  "sourcePath": "/home/nikola/votingDapp/contracts/Voting.sol",
  "compiler": {
    "name": "solc",
    "version": "0.4.24+commit.e67f0147.Emscripten.clang"
  },
  "schemaVersion": "2.0.1",
  "updatedAt": "2018-08-08T11:40:14.717Z"
}